:1000000012C0189518951895F4C01895189518955C
:100010001895189518951895189518951895189578
:100020001895189518958FE58DBFCAE1E2EE4E2E12
:1000300084E08EBFD4E0F3E05F2EA89584B7082E4D
:10004000877F84BF88E1992781BD91BDEEEFF3E002
:10005000A0E6B0E088278D933197E9F766248FEF0B
:1000600081BBA59AB89ABA9ABB9ABC9ABD9AA19A32
:10007000A29AA39AA498AC9A84E886B980E487B936
:10008000B99A83E88FBD81E08EBD84E085BD74B7E9
:10009000777F74BF8BE193E081BD91BD789479B790
:1000A000706479BF84E085BD81B5886081BD8FEFC4
:1000B00093E09BBD8ABDAD98A895ACE9B0E0B8D4FB
:1000C000ACE9B0E00D911C91083750E0150710F035
:1000D00009F087C0C09A77E772BBEF93FF93E4E71C
:1000E000F0E098D3FF91EF9146D3C29AE8EEF1E0A9
:1000F000ADE8B0E08C919927A2E3B0E096D4EF93FD
:10010000FF93E4E7F0E086D3FF91EF9134D3C39AF5
:10011000E8EEF1E0AEE8B0E08C919927A2E3B0E020
:1001200084D4EF93FF93E4E7F0E074D3FF91EF9171
:1001300022D3C49AE8EEF1E0AFE8B0E08C919927C1
:10014000A2E3B0E072D4EF93FF93E4E7F0E062D370
:10015000FF91EF9110D3C59A78E772BBEF93FF93AD
:10016000E4E7F0E057D3FF91EF9105D3A99AE8EEC9
:10017000F1E0A0E9B0E08C919927A2E3B0E055D47A
:10018000EF93FF93E4E7F0E045D3FF91EF91F3D2D3
:10019000AA9AE8EEF1E0A1E9B0E08C919927A2E3F8
:1001A000B0E043D4EF93FF93E4E7F0E033D3FF9163
:1001B000EF91E1D2AB9AE8EEF1E0A2E9B0E08C91E8
:1001C0009927A2E3B0E031D4EF93FF93E4E7F0E0A6
:1001D00021D3FF91EF91CFD2ACE9B0E0D7D208F4B0
:1001E0006FCF6ACFF894FFCF3F065B4F666D7D07F8
:1001F0007F6F0F921F922F923F924F925F927F924A
:10020000AF92BF920F931F932F933F934F935F93A0
:100210006F937F938F939F93AF93BF93CF93DF930E
:10022000EF93FF938FB78F93882785BD79B77F7B37
:1002300079BFA6E8B0E08C918F5F8C93379A07B1B5
:10024000007F07B9D9D3A3E9B0E08D939C9307B1A0
:10025000007F066007B9D0D3AEE9B0E08D939C93E0
:1002600007B1007F076007B9C7D3A5E9B0E08D9358
:100270009C933798E4E1FFE002D6EEE9F0E0D190FC
:10028000E080FF2400271AD546D5EDE0F0E0A0EA93
:10029000B0E06FD4E8E1FFE0F2D5E5E9F0E0D1901D
:1002A000E080FF2400270AD536D5EDE0F0E0AEE689
:1002B000B0E05FD4ECE1FFE0E2D5EEE6F0E096D40A
:1002C0002AD5EDE0F0E0AEE6B0E053D4EEE6F0E0A3
:1002D0008DD4E0E2FFE0D3D570D408F005C0AEE6DF
:1002E000B0E0E4E2FFE099D3EEE6F0E07FD4E8E2AC
:1002F000FFE0C5D562D410F009F001C005C0AEE63C
:10030000B0E0E8E2FFE089D3ECE2FFE0B8D5E5E950
:10031000F0E0D190E080FF240027D0D4FCD4EDE0C1
:10032000F0E0A6E7B0E025D4E0E3FFE0A8D5E6E7FB
:10033000F0E05CD456D5EDE0F0E0A6E7B0E019D4EB
:100340009C9B12C0E6E7F0E0A6D5EDE0F0E05ED4BD
:10035000E8E1F0E0EE0C000FE7948D2D9E2D9093D8
:100360004B0080934A001DC0A0E6B0E00D911C91A7
:10037000003550E0150710F009F001C005C080E01D
:1003800092E09BBD8ABD0DC0A0E6B0E00D911C912E
:100390000C3350E0150708F004C080E090E09BBDEE
:1003A0008ABDEEE6F0E022D4EAE7F0E024D405D4FA
:1003B00080E010F009F081E08F93EEE6F0E016D4D3
:1003C000EEE7F0E018D4F9D381E008F080E09F91E7
:1003D000892B882309F4A0C0EEE6F0E0A2E7B0E0A4
:1003E000C8D3E4E3FFE04BD5E2E7F0E0FFD3F9D474
:1003F000EDE0F0E0AAE7B0E0BCD3E4E3FFE03FD5F6
:10040000E2E7F0E0F3D3DED4EDE0F0E0AEE7B0E019
:10041000B0D3EEE6F0E0A7E9B0E0E8D304D2EEE630
:10042000F0E0E4D3E8E2FFE02AD5C7D308F418C02F
:1004300083E0E7E9F0E001E00A93A7E8B0E09FD3AA
:1004400082E0E7E9F0E001E00A93A9E8B0E097D3A1
:1004500081E0E7E9F0E001E00A93ABE8B0E08FD398
:10046000EEE6F0E0C3D3E8E2FFE009D5A6D381E0F1
:1004700008F080E08F93EEE6F0E0B8D3ECE1FFE027
:10048000FED49BD381E008F480E09F9189238823E8
:1004900009F415C082E0E7E9F0E001E00A93A7E87B
:1004A000B0E06DD381E0E7E9F0E001E00A93A9E86C
:1004B000B0E065D3ABE8B0E0ECE3FFE098D2EEE665
:1004C000F0E094D3ECE1FFE0DAD477D308F012C087
:1004D00081E0E7E9F0E001E00A93A7E8B0E04FD35C
:1004E000A9E8B0E0ECE3FFE082D2ABE8B0E0ECE3F7
:1004F000FFE07DD2ABE8B0E00AD3ADE8B0E00C930A
:10050000A9E8B0E004D3AEE8B0E00C93A7E8B0E00F
:10051000FED2AFE8B0E00C93A2E8B0E00D911D91DF
:100520002D913C91A3E9B0E04D915C91662777272E
:1005300087D2A2E8B0E00D931D932D933D930091D7
:100540008600043109F0F4C0A2E8B0E00D911C91DE
:10055000A6E8B0E04D91552743D1A0E6B0E04D9319
:100560005C9380E080938600A2E8B0E063D2AEE9BD
:10057000B0E04D915C91A0E6B0E00D911C910417A4
:10058000150781E008F080E08F93A3E3B0E00C91C1
:1005900004FB81E00EF080E09F918923882309F419
:1005A00002C0AD9A01C0AD98E0EAF0E01FD3E6E6E4
:1005B000F0E021D302D380E010F009F081E08F93C6
:1005C000E0EAF0E013D3EAE6F0E015D3F6D281E0FA
:1005D00008F080E09F91892B882309F4A9C0E0EA04
:1005E000F0E0A2E6B0E0C5D2E8E3FFE048D4E2E6FE
:1005F000F0E0FCD2F6D3EDE0F0E0A6E6B0E0B9D250
:10060000E8E3FFE03CD4E2E6F0E0F0D2DBD3EDE05B
:10061000F0E0AAE6B0E0ADD2E0EAF0E03CD4EDE0F4
:10062000F0E0F4D2A4EAB0E0DD92EC92E4EAF0E08B
:10063000A7E9B0E018D2A4EAB0E00D911C9104360D
:1006400050E0150708F418C083E0E7E9F0E001E0A6
:100650000A93A7E8B0E093D282E0E7E9F0E001E096
:100660000A93A9E8B0E08BD281E0E7E9F0E001E08D
:100670000A93ABE8B0E083D2A4EAB0E00D911C91FC
:100680000A3050E0150781E008F480E08F93A4EA77
:10069000B0E00D911C91043650E0150781E008F0A0
:1006A00080E09F918923882309F415C082E0E7E95F
:1006B000F0E001E00A93A7E8B0E061D281E0E7E969
:1006C000F0E001E00A93A9E8B0E059D2ABE8B0E06D
:1006D000ECE3FFE08CD1A4EAB0E00D911C910A306C
:1006E00050E0150708F012C081E0E7E9F0E001E012
:1006F0000A93A7E8B0E043D2A9E8B0E0ECE3FFE05A
:1007000076D1ABE8B0E0ECE3FFE071D1ABE8B0E06C
:10071000FED1A0E9B0E00C93A9E8B0E0F8D1A1E9DE
:10072000B0E00C93A7E8B0E0F2D1A2E9B0E00C93FE
:1007300079B7706479BF74E174BD84E085BD8F9131
:100740008FBFFF91EF91DF91CF91BF91AF919F91BB
:100750008F917F916F915F914F913F912F911F9159
:100760000F91BF90AF907F905F904F903F902F90F0
:100770001F900F90189570E072BBC098C298C398F4
:10078000C498C598A998AA98AB980895ED91FC9142
:10079000EF5FFF4FFC93EE93089500FC10D0089597
:1007A00003D01ED001F8F9CF0024E89457FF02C00F
:1007B00009D0689400F80BD010F80124089502D0F5
:1007C00009D00895509540954F5F5F4F0895E89484
:1007D00017FF0895009510950F5F1F4F68940895B7
:1007E000352F242FE894452B11F468940895512F48
:1007F000402F0027112780E1440F551F001F111FB4
:10080000021B130B416018F4020F131F4E7F8A95D1
:1008100099F708953197F1F70895689462F808956B
:10082000E89462F808958DE207FD8D938F2D881F5F
:10083000802F881F8F57082F6894F7F8802F87FF25
:1008400015C080958395082F80E38D938EE28D935C
:10085000802F815228F080E38D9399279C930895EF
:1008600044270A95802F09F192D01FC0805230F0A2
:100870009EE49D9381E48D939D93EFCF4427DF9277
:10088000EF92FF920F938FE1801B11F0082F7FD022
:1008900085D09EE29D930F91FF90EF90DF904427CB
:1008A0000395003209F4D7CF27D03F93EEE2F9E069
:1008B00038E12F2D1E2D0D2DFF24EE24DD2444279D
:1008C000000F111F221F88F42F923F929ED0102CF0
:1008D0009CD0202C9AD0302C98D03197410DD21C2E
:1008E000E31CF01C3F902F9001C0339631963A954F
:1008F00039F73F9107D0B3CFDD0CEE1CFF1C0A95F2
:10090000D9F70895002719E058D08F93802B11F064
:10091000039501C08F911A95B9F7802F882309F4A8
:100920009ACF8F91805D8D930A95D9F796CF006508
:10093000CD1D80B2E60E40597307A0ACB90350D666
:10094000DC01286BEE0094357700CA9A3B0065CD38
:100950001D00B2E60E0059730700ACB90300D6DCE7
:1009600001006BEE0000357700009A3B0000CD1DC2
:100970000000E60E000073070000B9030000DC0170
:100980000000EE000000770000003B000000F6943D
:10099000E794D79447950A95D1F7089500270DD08D
:1009A0008F9303958F2D8E298D29842BC1F78F91DD
:1009B000805D8D930A95D9F750CF1F930F93002731
:1009C00010E2440FDD1CEE1CFF1C001F802F9AE07C
:1009D000890B10F0082F43951A9599F7802F0F91E6
:1009E0001F910895019111912191308108950DD0A9
:1009F0000D920020E1F70895369A3699FECF369A87
:100A00003699FECF84B195B10895C89531960020EE
:100A1000089591E005C092E003C094E001C098E021
:100A2000F4DF0D929A95E1F70895E80FF91FF1CFE1
:100A300082E001C084E099279D938A95E9F70895A3
:100A4000040F151F261F371F0895000F111F221FA7
:100A5000331F089500951095209530950F5F1F4F17
:100A60002F4F3F4F0895019110810DC0BBDF0DC086
:100A7000B9DF10C00191108117FF05C03FEF2FEFC4
:100A800004C0008111272227332737FF03C0E2DF8C
:100A90008DE28D93CF92DF92EF92AA24BB24CC24D7
:100AA000DD24EE2440E2EAE0FF2755E093E3808175
:100AB000890F87FD9F7083FD907F891B81935A95D5
:100AC000A9F7C3DFAA1CBB1CCC1CDD1CEE1C4A957D
:100AD00051F7E894EFE0FF2782910CD0EB30E0F77C
:100AE0001EF068948A2D0AD088278D93EF90DF90AE
:100AF000CF900895982F829501D0892F8F70805DB7
:100B000026F0803309F4089568948D9308950027A2
:100B10001127222733271DD08A3328F4803318F079
:100B200005D015D0F9CF0EF495CF089580538F934B
:100B3000402F512F622F732F88DF87DF81DF85DF02
:100B40008F919927080F191F291F391F08958D911B
:100B50000895E894FCDF8032E9F38B32D9F38930D1
:100B6000C9F38D3211F46894F2CF089588278D93DC
:100B7000089594E081918D939A95E1F708950991F4
:100B80009191992359F08A95D9F73197002331F043
:100B900081918D930A958823C9F70895E7CFB7FE11
:100BA000089590E8B91611F4D0FE08959FEFD91A70
:100BB000E90AF90A09F4039508950F928F939F9318
:100BC000D216E306F4060FB680E890E88027952752
:100BD0000FBE890739F00FB6892B87FD02C081E06F
:100BE00008260FBE9F918F910F900895D190E190AC
:100BF000F190019108952191319141915191089580
:100C0000502F2D2D3E2D4F2D612F0895EFDF992769
:100C100011278F2D880F80E8F82A802F881F08F46D
:100C20001FEF41F08F57082F07FD04C0003240F03E
:100C30008FEF01C08827982FD82EE82EF82E09C0F4
:100C40008FE1801B082FF694E794D79497950A9527
:100C5000D1F7112351F09095D094E094F09481E075
:100C6000980F8827D81EE81EF81E0F2DFE2CED2C9D
:100C7000D92E0895D094E094F09491E0D90E99275C
:100C8000E91EF91E10950895652F90E8440F551F31
:100C90005927990F47956078102F90E8FF0C001F97
:100CA0000927990FF794107800380895FF0C90E801
:100CB0009027110F9795F794092F08951127BD2CB0
:100CC000DE2CEF2CF02E0EE1FF2039F4FE2CED2C63
:100CD000DB2CBB240850C2F752C032F00A95BB0C83
:100CE000DD1CEE1CFF1CF9CF5ADFE0CF2DEC3CECF5
:100CF0004CEC5DE366270FC079DF82DFDD24EE2454
:100D000090E8F92E0FE307C076DF05C022273327CE
:100D100040E251E46627552351F1002381F1B4DF0D
:100D200071F11627005850580894050B18F407FD68
:100D300003C025C007FD23C0469537952795F69437
:100D4000E794D79422D0FF202AF0DD0CEE1CFF1C84
:100D5000015073F09D2D969548F0DD203AF4EE2079
:100D60002AF491E0D90E9927E91EF91E9FCF07C0FA
:100D70009FE7092FF92A9FEFD92EE92E0895DD2448
:100D8000EE24FF240027112708959F929924AA2476
:100D9000BB2488E1D216E306F40628F0D21AE30A4F
:100DA000F40A089401C08894991CAA1CBB1CDD0C91
:100DB000EE1CFF1C8A9571F7D92CEA2CFB2C9F9016
:100DC000089519DF61DF503829F090E869270CC0D9
:100DD0000AF045D06BCF5FE322273327442701C0B9
:100DE0000ADF52DF5038B1F3003899F3902F951B8A
:100DF0008BF312F434D0FACF983118F0222733272E
:100E00004427983028F0232F342F44279850F9CFC7
:100E1000992329F04695379527959A95D9F7912FDB
:100E2000962742F014D0B0F6F794E794D7940F5F6A
:100E30008BF69ECF10D051F008F41CDFFF2052F249
:100E4000DD0CEE1CFF1C0150CBF792CF98CFD20ED9
:100E5000E31EF41E0895D21AE30AF40A0895DF92FD
:100E6000EF92FF920F931F93D22EE32EF42E052FB5
:100E7000162F6F915F914F913F912F910895C5DD8E
:100E8000202DC3DD302DC1DD402DBFDD502D089557
:100E9000ADDE80E003C0AADE802F8078882321F0B9
:100EA000DF92EF92FF920F938F93EEDE802F839568
:100EB00012F465DF1BC080958A95885E0AF415C020
:100EC00088501AF40CD0D92210C0DD2488501AF4AE
:100ED00006D0E9220AC0EE2402D0F92206C09FEF14
:100EE0008770990F8A95EAF70895E0DE8F9188233D
:100EF000D9F35F914F913F912F910F935EDE0F9148
:100F000099F390F302D050686CCF5FE340E8332749
:100F1000222708955C8F0240E5D0823F00002041E7
:100F2000000000400000803F0000C8420000C03FB9
:0E0F30000080AA430000003FCDCC4C3F3000B3
:00000001FF
